:04000000CBEF12F040
:100800000000803F00204100C842007A44401C465E
:1008100050C34724744997184BBCBE4C6B6E4E03B3
:10082000155079AD60F3497100803FCDCC3DD723A1
:100830003C12833AB7D138C62737388635C0D6330D
:10084000CC2B32708930E7DB2EE53C1E42A20D0135
:100850000000000A00000064000000E8030000102F
:10086000270000A086010040420F008096980000FB
:10087000E1F50500CA9A3B0D0A436F727269656E15
:1008800074653A20252E3266410D0A00252E326607
:090890004120202000493D000038
:10089A00400E4C6E41D3250E5E18D8B407D03E5098
:1008AA00D96EDA6A5EC0DFFF3E2A36D3000E4E6E7C
:1008BA00000E4D6E3FC0F6FF080EF76E0800F550A9
:1008CA002E0AD8A432D04E8C3F2A000E5A6E000E41
:1008DA00596E20D059C001F05AC002F0000E046EC1
:1008EA000A0E036E77EC12F001C059F002C05AF0FA
:1008FA003FC0F6FF080EF76E0800F5CF43F0D00EA2
:10090A004324446E456AFF0E4522445059264550F9
:10091A005A223F2A3FC0F6FF080EF76E0800F5502C
:10092A00ABEC12F0D8A009D0D5D7000E5A6E000E43
:10093A00596E4E8802D04E8412D03F2A3F04436E2D
:10094A0043C0F6FF080EF76E0800F5CF5EF05E5062
:10095A00000AD8B4EED2660AD8B4EDD7DDD2070EB3
:10096A004E14D8B4A9D24EA804D0000E5A6E060E60
:10097A00596E4C50D96EDA6ADECF5BF0DECF5CF08E
:10098A00DDCF5DF0030E4C265DAE10D05BC001F0EA
:10099A005CC002F05DC003F08AEC12F001C05BF0AB
:1009AA0002C05CF003C05DF0030E4D12000E546EDF
:1009BA00000E536E5B505C105D10D8B483D0820E6B
:1009CA00436EFF0E446E5BC045F05CC046F05DC0EE
:1009DA0047F05EC048F0100E05D0D8904832473232
:1009EA0046324532E82EF9D745504324536E000E5D
:1009FA004420546E5306D8A0540653C001F054C084
:100A0A0002F0000E046E030E036E77EC12F001C0C2
:100A1A0053F002C054F053C007F054C008F0000E5F
:100A2A000A6E0A0E096EF1EC0FF007C053F008C007
:100A3A0054F054AE03D05306D8A0540653500008BD
:100A4A00A3EC07F01EC055F01FC056F020C057F0A7
:100A5A0055C00FF056C010F057C011F05BC012F02D
:100A6A005CC013F05DC014F0CAEC0DF00FC055F075
:100A7A0010C056F011C057F055C001F056C002F030
:100A8A0057C003F0000E046E800E056E3F0E066E10
:100A9A0073EC10F0D8B004D05306D8A0540612D084
:100AAA0055C001F056C002F057C003F0000E046EA4
:100ABA00200E056E410E066E73EC10F0D8A002D01F
:100ACA00534A542A5ABE06D05A501BE10D0E595C9D
:100ADA00D8B017D05BC02CF05CC02DF05DC02EF0F2
:100AEA0059506FEC09F01EC02FF01FC030F020C023
:100AFA0031F03BEC0BF02CC05BF02DC05CF02EC04B
:100B0A005DF054BE06D054501EE10A0E535CD8B0B4
:100B1A001AD05B505C105D10D8B451D05BC029F07C
:100B2A005CC02AF05DC02BF031EC0FF029502A107E
:100B3A002B102C10D8B454BE42D0545004E1020EEB
:100B4A00535CD8A03CD055C001F056C002F057C043
:100B5A0003F0700E046E890E056E400E066E73EC7D
:100B6A0010F0D8B002D0F70E01D0F80E5326FF0EBF
:100B7A0054225350A3EC07F01EC055F01FC056F084
:100B8A0020C057F05BC001F05CC002F05DC003F00A
:100B9A0055C004F056C005F057C006F04BEC0DF0F6
:100BAA0001C04FF002C050F003C051F004C052F02F
:100BBA00000E5B6E000E5C6E000E5D6E32D05BC086
:100BCA0029F05CC02AF05DC02BF031EC0FF029C08F
:100BDA004FF02AC050F02BC051F02CC052F05BC02D
:100BEA0038F05CC039F05DC03AF04FC009F050C02F
:100BFA000AF051C00BF052C00CF017EC11F009C00A
:100C0A003BF00AC03CF00BC03DF0DDEC11F038C0FF
:100C1A005BF039C05CF03AC05DF0000E546E000E15
:100C2A00536E010E5E6E5E50040DF3504F0F436E0D
:100C3A0043C0F6FF080EF76E0900F5504F5C090035
:100C4A00F55050580900F55051580900F5505258BE
:100C5A00D8A005D05E2A0A0E5E18D8A4E4D74DC0E3
:100C6A0043F0030E4316D8B44ED03E50D96EDA6A1A
:100C7A002D0EDF6E3E2A47D04FC001F050C002F061
:100C8A0051C003F052C004F05E50040DF3504F0FF0
:100C9A00436E43C0F6FF080EF76E0900F5CF05F064
:100CAA000900F5CF06F00900F5CF07F00A00F5CFE5
:100CBA0008F032EC10F001C055F002C056F003C043
:100CCA0057F004C058F055C001F056C002F057C0A2
:100CDA0003F058C004F00A0E056E000E066E000EF0
:100CEA00076E000E086EE4EC10F001C055F002C069
:100CFA0056F003C057F004C058F03E50D96EDA6A75
:100D0A005550300FB6D75E065E28D8B40AD0B4D78D
:100D1A003E50D96EDA6A300EDF6E3E2A5306D8A0EC
:100D2A00540654BE05D05450F3E15304D8B0F0D75A
:100D3A005ABE09D05A5004E1090E595CD8A003D012
:100D4A00080E5E6E02D059C05EF05E50595E000E0B
:100D5A005A5A5E50D8B406D03E50D96EDA6A2E0E70
:100D6A00DF6E3E2A5E50A3EC07F01EC049F01FC09A
:100D7A004AF020C04BF05BC012F05CC013F05DC0BB
:100D8A0014F049C00FF04AC010F04BC011F0CAEC81
:100D9A000DF00FC029F010C02AF011C02BF031EC71
:100DAA000FF029C04FF02AC050F02BC051F02CC0D0
:100DBA0052F06FD04FC001F050C002F051C003F0A2
:100DCA0052C004F05E50040DF3504F0F436E43C0FF
:100DDA00F6FF080EF76E0900F5CF05F00900F5CF0A
:100DEA0006F00900F5CF07F00A00F5CF08F032EC5B
:100DFA0010F001C055F002C056F003C057F004C00D
:100E0A0058F055C001F056C002F057C003F058C060
:100E1A0004F00A0E056E000E066E000E076E000E36
:100E2A00086EE4EC10F001C055F002C056F003C0A1
:100E3A0057F004C058F03E50D96EDA6A5550300F58
:100E4A00DF6E3E2A4FC001F050C002F051C003F0DD
:100E5A0052C004F05E50040DF3504F0F436E43C06E
:100E6A00F6FF080EF76E0900F5CF05F00900F5CF79
:100E7A0006F00900F5CF07F00A00F5CF08F0E4EC18
:100E8A0010F001C04FF002C050F003C051F004C08E
:100E9A0052F05E065E28D8B40AD08CD73E50D96E7E
:100EAA00DA6A300EDF6E3E2A5906D8A05A06595021
:100EBA005A10D8B431D0F2D759505A10D8A408D001
:100ECA004F50501051105210D8A402D0594A5A2AE1
:100EDA005E50436E446A5950435C4450800A456EE2
:100EEA005A50800A4558D8A00BD05E50436E446AC7
:100EFA004350595C5A50800A456E4450800A4558FE
:100F0A004DC043F0030E4316D8B406D03E50D96EF6
:100F1A00DA6A2D0EDF6EC8D43F2A3F04436E43C0FF
:100F2A00F6FF080EF76E0800F5CF5EF05E50D8A403
:100F3A00B2D43E50D96EDA6ADF6A1200286E28AE41
:100F4A00E5D0286C2850800A120FD8A080D0000E55
:100F5A000A6E0A0E096E000E046E640E036E2850A5
:100F6A00016E026A01BE0206ADEC10F001C007F084
:100F7A0002C008F0F1EC0FF00750030DF3CF21F097
:100F8A001B0E21262150280F226E22C0F6FF080EC2
:100F9A00F76E0900F5CF12F00900F5CF13F00A0039
:100FAA00F5CF14F0000E0A6E640E096E2850076E13
:100FBA00086A07BE0806F1EC0FF00750030DF3CFDD
:100FCA0023F0360E23262350280F246E24C0F6FF62
:100FDA00080EF76E0900F5CF0FF00900F5CF10F0F3
:100FEA000A00F5CF11F0CAEC0DF00FC025F010C0C1
:100FFA0026F011C027F025C00FF026C010F027C038
:10100A0011F0000E046E0A0E036E2850016E026A79
:10101A0001BE0206ADEC10F00150030DF350280F8B
:10102A00216E21C0F6FF080EF76E0900F5CF12F007
:10103A000900F5CF13F00A00F5CF14F0CAEC0DF051
:10104A000FC01EF010C01FF011C020F0120028506F
:10105A00800A750FD8A047D0000E0A6E0A0E096ED4
:10106A002850076E086A07BE0806F1EC0FF0075011
:10107A00030DF3CF21F01B0E21262150280F226EDB
:10108A0022C0F6FF080EF76E0900F5CF0FF009002F
:10109A00F5CF10F00A00F5CF11F0000E046E0A0E1B
:1010AA00036E2850016E026A01BE0206ADEC10F012
:1010BA000150030DF350280F236E23C0F6FF080ECC
:1010CA00F76E0900F5CF12F00900F5CF13F00A0008
:1010DA00F5CF14F0CAEC0DF00FC01EF010C01FF0CF
:1010EA0011C020F012002850030DF350280F216E72
:1010FA0021C0F6FF080EF76E0900F5CF1EF00900B1
:10110A00F5CF1FF00A00F5CF20F012002850800A10
:10111A00120FD8A080D0000E0A6E0A0E096E000EB9
:10112A00046E640E036E2850016E026A01BE020646
:10113A00ADEC10F001C007F002C008F0F1EC0FF0BE
:10114A000750030DF3CF21F01B0E21262150010F6A
:10115A00226E22C0F6FF080EF76E0900F5CF12F0D4
:10116A000900F5CF13F00A00F5CF14F0000E0A6E4D
:10117A00640E096E2850076E086A07BE0806F1EC6D
:10118A000FF00750030DF3CF23F0360E232623501A
:10119A00010F246E24C0F6FF080EF76E0900F5CF82
:1011AA000FF00900F5CF10F00A00F5CF11F0CAECE4
:1011BA000DF00FC025F010C026F011C027F025C091
:1011CA000FF026C010F027C011F0000E046E0A0EB0
:1011DA00036E2850016E026A01BE0206ADEC10F0E1
:1011EA000150030DF350010F216E21C0F6FF080EC6
:1011FA00F76E0900F5CF12F00900F5CF13F00A00D7
:10120A00F5CF14F0CAEC0DF00FC01EF010C01FF09D
:10121A0011C020F012002850800A750FD8A047D0BC
:10122A00000E0A6E0A0E096E2850076E086A07BE7B
:10123A000806F1EC0FF00750030DF3CF21F01B0E57
:10124A0021262150010F226E22C0F6FF080EF76EEA
:10125A000900F5CF0FF00900F5CF10F00A00F5CF1D
:10126A0011F0000E046E0A0E036E2850016E026A17
:10127A0001BE0206ADEC10F00150030DF350010F50
:10128A00236E23C0F6FF080EF76E0900F5CF12F0A1
:10129A000900F5CF13F00A00F5CF14F0CAEC0DF0EF
:1012AA000FC01EF010C01FF011C020F0120028500D
:1012BA00030DF350010F216E21C0F6FF080EF76EE1
:1012CA000900F5CF1EF00900F5CF1FF00A00F5CF8F
:1012DA0020F012002B6E6D0E2B6479D00A0E056E6B
:1012EA00640E016E2B504FEC12F0FDEC11F0030D61
:1012FA00F3CF21F01B0E21262150280F226E22C087
:10130A00F6FF080EF76E0900F5CF12F00900F5CFC7
:10131A0013F00A00F5CF14F0640E056E2B50FDECA5
:10132A0011F0030DF3CF23F0360E23262350280F96
:10133A00246E24C0F6FF080EF76E0900F5CF0FF0F1
:10134A000900F5CF10F00A00F5CF11F0CAEC0DF044
:10135A000FC028F010C029F011C02AF00A0E016E41
:10136A002B504FEC12F0030DF350280F216E21C0C1
:10137A00F6FF080EF76E0900F5CF12F00900F5CF57
:10138A0013F00A00F5CF14F028C00FF029C010F0AE
:10139A002AC011F0CAEC0DF00FC025F010C026F0DB
:1013AA0011C027F025C00FF026C010F027C011F099
:1013BA00000E126E000E136E3F0E146ECAEC0DF084
:1013CA000FC01EF010C01FF011C020F012000A0E4C
:1013DA002B644DD00A0E016E2B504FEC12F0030D08
:1013EA00F350280F216E21C0F6FF080EF76E090090
:1013FA00F5CF12F00900F5CF13F00A00F5CF14F07B
:10140A000A0E056E2B50FDEC11F0030DF3CF22F0FE
:10141A001B0E22262250280F236E23C0F6FF080E29
:10142A00F76E0900F5CF0FF00900F5CF10F00A00AA
:10143A00F5CF11F0CAEC0DF00FC028F010C029F05A
:10144A0011C02AF028C00FF029C010F02AC011F0EC
:10145A00000E126E000E136E3F0E146ECAEC0DF0E3
:10146A000FC01EF010C01FF011C020F012002B5048
:10147A00030DF350280F216E21C0F6FF080EF76EF8
:10148A000900F5CF0FF00900F5CF10F00A00F5CFEB
:10149A0011F0000E126E000E136E3F0E146ECAEC9F
:1014AA000DF00FC01EF010C01FF011C020F0120086
:1014BA00D3EC12F0800E0E6E250E0F6E000E106E1B
:1014CA00000E116EC8EC0CF0C2EC12F095EC11F0A3
:1014DA00000E0001846F000E856F000E866F000EED
:1014EA00886F000E876F000E34EC12F001C07CF09A
:1014FA0002C07DF0000E00017C25096EFE0E7D21E2
:10150A000A6E19EC12F009C07EF00AC07FF00BC017
:10151A0080F084C02CF085C02DF086C02EF07EC0ED
:10152A0012F07FC013F080C014F07EC00FF07FC0AD
:10153A0010F080C011F0CAEC0DF00FC02FF010C0EF
:10154A0030F011C031F03BEC0BF02CC084F02DC010
:10155A0085F02EC086F00001874B882B88BFC3D741
:10156A00885104E1F00E875DD8A0BDD784C04EF043
:10157A0085C04FF086C050F0000E516E700E526E4C
:10158A00430E536EBEEC0EF04EC076F04FC077F0AD
:10159A0050C078F076C03EF077C03FF078C040F097
:1015AA000EEC0CF03EC079F03FC07AF040C07BF000
:1015BA00280E126EA00E136E3B0E146E79C00FF039
:1015CA007AC010F07BC011F0CAEC0DF00FC04EF0DB
:1015DA0010C04FF011C050F0CD0E516ECC0E526EAD
:1015EA003D0E536EBEEC0EF04EC081F04FC082F03D
:1015FA0050C083F0000E076E010E63EC12F0950ED8
:10160A00066E0650D8A4080E076E45EC11F0620E5D
:10161A003E6E8C0E3F6E81C040F082C041F083C0A6
:10162A0042F04DEC04F0620E066E076A45EC11F0CA
:10163A00620E3E6E770E3F6E81C040F082C041F06E
:10164A0083C042F04DEC04F0620E026E9CEC12F084
:10165A001F0E0001616F710E606F1E0EE82EFED71D
:10166A00602FFCD7612FFAD7000032D72EC032F094
:10167A00336A346A2D34323601E333803250376E9E
:10168A0031C032F0336A346A3034323601E333809F
:10169A003250366E3750D8B40AD03650375CD8B08C
:1016AA000DD03750365C326E180E326407D02FC018
:1016BA002CF030C02DF031C02EF012003650D8B4C4
:1016CA000AD03750365CD8B00DD03650375C326EFF
:1016DA00180E326407D02CC02CF02DC02DF02EC06D
:1016EA002EF01200060E356E2EBE358E31BE358CAA
:1016FA002D8EFF0E2C16FF0E2D16000E2E16308E76
:10170A00FF0E2F16FF0E3016000E31163650375CBC
:10171A00D8B01BD0D8902F363036313636063750EF
:10172A003618D8B40DD0350635C032F0070E321649
:10173A00D8B406D0EFD7D8902E322D322C32372A91
:10174A0036503718D8B41FD0F6D73750365CD8B0D1
:10175A001AD0D8902C362D362E36370637503618F2
:10176A00D8B40DD0350635C032F0070E3216D8B4CB
:10177A0006D0EFD7D890313230322F32362A36504F
:10178A003718D8A4F7D735AE0CD0FF0E2C1AFF0E97
:10179A002D1AFF0E2E1A010E2C26000E2D22000ED7
:1017AA002E2235AC0CD0FF0E2F1AFF0E301AFF0E68
:1017BA00311A010E2F26000E3022000E3122356A10
:1017CA002C502F262D5030222E50312231AE0ED0E1
:1017DA00FF0E2F1AFF0E301AFF0E311A010E2F2696
:1017EA00000E3022000E3122010E356E2FC001F09C
:1017FA0030C002F031C003F037C004F035C005F044
:10180A009AEC0FF001C02CF002C02DF003C02EF0AC
:10181A001200000E016E000E026E000E036E3EC034
:10182A0004F03FC005F040C006F073EC10F0D8A0F9
:10183A000ED040AE05D0000E00018A6F210E896FCE
:10184A00000E3E6E000E3F6E000E406E12003EC04D
:10185A0044F03FC045F040C046F0C80E416E6E0EDF
:10186A00426EBE0E436E3E50415C4B6E3F50425834
:10187A004C6E405043584D6ED8904D324C324B32DC
:10188A00000E445E800E455A000E465A040E476EFC
:10189A004BC00FF04CC010F04DC011F044C012F014
:1018AA0045C013F046C014F0CAEC0DF00FC048F062
:1018BA0010C049F011C04AF048C00FF049C010F0FA
:1018CA004AC011F04BC012F04CC013F04DC014F0D6
:1018DA00CAEC0DF00FC048F010C049F011C04AF030
:1018EA0048C00FF049C010F04AC011F04BC012F0C6
:1018FA004CC013F04DC014F0CAEC0DF00FC048F004
:10190A0010C049F011C04AF04BC00FF04CC010F0A3
:10191A004DC011F0000E126EC00E136E3F0E146E03
:10192A00CAEC0DF00FC04BF010C04CF011C04DF0D6
:10193A004BC038F04CC039F04DC03AF048C03BF0CB
:10194A0049C03CF04AC03DF0DDEC11F038C04BF024
:10195A0039C04CF03AC04DF0472E9AD74BC00FF021
:10196A004CC010F04DC011F03EC012F03FC013F051
:10197A0040C014F0CAEC0DF00FC03EF010C03FF0AA
:10198A0011C040F012000EC012F00FC013F010C0C8
:10199A0014F011C015F0060ED8901236133614360C
:1019AA001536E82EF9D712500008016E6C0E135442
:1019BA00026EDC0E1454036E020E1554046E0EC031
:1019CA0016F00FC017F010C018F011C019F0060E6B
:1019DA00D8901636173618361936E82EF9D716C0A3
:1019EA0005F017C006F018C007F019C008F032EC6D
:1019FA0010F001C01AF002C01BF01B04D8A03CD0A2
:101A0A000EC012F00FC013F010C014F011C015F080
:101A1A00040ED8901236133614361536E82EF9D736
:101A2A0012500008016E6C0E1354026EDC0E145430
:101A3A00036E020E1554046E0EC016F00FC017F096
:101A4A0010C018F011C019F0040ED89016361736C7
:101A5A0018361936E82EF9D716C005F017C006F061
:101A6A0018C007F019C008F032EC10F001C01AF0E3
:101A7A0002C01BF0AC8401D0AC941AC0AFFFAC9882
:101A8A00AB8E948C948EAC8AAB88120003C007F09C
:101A9A00086A096A0234073601E3088007500F6EA4
:101AAA000F50D8A409D0000E016E000E026E000E6F
:101ABA00036E000E046E120006C007F0086A096A77
:101ACA000534073601E3088007500E6E0E50D8B46D
:101ADA00EAD7028EFF0E0116FF0E0216000E03163B
:101AEA00058EFF0E0416FF0E0516000E0616000ED2
:101AFA000A6E000E0B6E000E0C6E000E0D6E7F0E3F
:101B0A000F5E0E50980F0F5E180E0E6ED8900A36A2
:101B1A000B360C360D360450015C0550025806503F
:101B2A000358D8A007D00450015E0550025A065047
:101B3A00035A0A80D8900136023603360E2EE6D7AB
:101B4A000FAE0DD00F50800A970FD8A0ACD7D890FF
:101B5A000D320C320B320A320F3EF9D70DD0170E66
:101B6A000F6407D0A0D7D8900A360B360C360D363C
:101B7A000F060F50D8A4F7D70AC001F00BC002F025
:101B8A000CC003F00DC004F0120011C015F0166A63
:101B9A00176A1034153601E316801550186E18505E
:101BAA00D8A407D0000E0F6E000E106E000E116E34
:101BBA00120014C015F0166A176A1334153601E3B9
:101BCA00168015501D6E1D50D8A407D0000E0F6E3A
:101BDA00000E106E000E116E12001D507B0F18269B
:101BEA0011C01DF014501D1A800E1D16108E138E72
:101BFA00FF0E1216FF0E1316000E1416000E196EA3
:101C0A00000E1A6E000E1B6E070E1C6E0FA006D079
:101C1A001250192613501A2214501B22D89011322E
:101C2A0010320F32D8901236133614361C2EEED7D5
:101C3A00090E1C6E0FA006D01250192613501A2234
:101C4A0014501B22D890113210320F32D8901B3206
:101C5A001A3219321C2EEED719C001F01AC002F03E
:101C6A001BC003F018C004F01DC005F09AEC0FF079
:101C7A0001C00FF002C010F003C011F012000334CB
:101C8A0004340C6E0C50D8A409D0000E016E000E5C
:101C9A00026E000E036E000E046E12000634073444
:101CAA000B6E0B50D8B4F1D7038EFF0E0116FF0E40
:101CBA000216FF0E0316000E0416068EFF0E0416F9
:101CCA00FF0E0516FF0E0616000E0716000E076E0B
:101CDA00000E086E000E096E000E0A6E7F0E0C5E74
:101CEA000B50A00F0C5E200E0B6ED89007360836EC
:101CFA0009360A360450015C05500258065003584A
:101D0A0007500458D8A009D00450015E0550025A61
:101D1A000650035A0750045A0780D89001360236F3
:101D2A00033604360B2EE1D70CAE0DD00C50800AC8
:101D3A009F0FD8A0AAD7D8900A32093208320732A0
:101D4A000C3EF9D70DD01F0E0C6407D09ED7D89041
:101D5A000736083609360A360C060C50D8A4F7D7C7
:101D6A0007C001F008C002F009C003F00AC004F07D
:101D7A00120050C054F0556A566A4F34543601E383
:101D8A00558054505B6E5B50D8A407D0000E4E6E3F
:101D9A00000E4F6E000E506E120053C054F0556A7A
:101DAA00566A5234543601E3558054505C6E5C5086
:101DBA00D8A407D0000E4E6E000E4F6E000E506E65
:101DCA001200000E586E000E596E000E5A6E5C50CC
:101DDA00890F5B5E50C05CF053505C1A800E5C1633
:101DEA004F8EFF0E4E16FF0E4F16000E5016528ED5
:101DFA00FF0E5116FF0E5216000E5316180E576E8E
:101E0A00D890583659365A3651504E5C52504F581F
:101E1A0053505058D8A007D051504E5E52504F5A86
:101E2A005350505A5880D8904E364F365036572E07
:101E3A00E7D758C001F059C002F05AC003F05BC09E
:101E4A0004F05CC005F09AEC0FF001C04EF002C03D
:101E5A004FF003C050F012002BC02DF02E6A2F6AEB
:101E6A002A342D3601E32E802D50376E3750D8A4F0
:101E7A0009D0000E296E000E2A6E000E2B6E000E7F
:101E8A002C6E1200170E2D6E29C02EF02AC02FF0CC
:101E9A002BC030F02D28316E04D0D89030322F323A
:101EAA002E32312EFAD72E50326E2A8EFF0E291676
:101EBA00FF0E2A16000E2B162950336E2A50346E46
:101ECA002B50356E366A8E0E375E37AE0DD03750D0
:101EDA00800A8F0FD8A0CDD7D89036323532343217
:101EEA003332373EF9D70DD0170E376407D0C1D732
:101EFA00D890333634363536363637063750D8A486
:101F0A00F7D73250D8B408D0361E351E341E336C7B
:101F1A00000E34223522362233C029F034C02AF08A
:101F2A0035C02BF036C02CF012000450D8B405D0BE
:101F3A00015002100310D8A40CD0000E016E000E3E
:101F4A00026E000E036E1200042AD8900332023287
:101F5A000132000E0114066E000E0214076EFE0E08
:101F6A000314086E065007100810D8B40CD0ECD72A
:101F7A00042A010E0126000E0222000E0322D89026
:101F8A00033202320132000E0114066E000E0214F0
:101F9A00076EFF0E0314086E065007100810D8B417
:101FAA0006D0E6D70406D89001360236033602BEBA
:101FBA0003D0020E0460F6D704A0029ED890043221
:101FCA00045003120550D8A4038E01C001F002C0C8
:101FDA0002F003C003F012000C6A0AAE06D0096CC4
:101FEA000A1ED8B00A2A010E0C6E08AE06D0076C7B
:101FFA00081ED8B0082A010E0C1A000E0E6E000E2A
:10200A000D6E09500A10D8B41CD0010E0B6E04D004
:10201A00D89009360A360B2A0AAEFAD7D8900D3666
:10202A000E360950075C0A500858D8A005D0095046
:10203A00075E0A50085A0D80D8900A3209320B2ED0
:10204A00EDD70C50D8B404D00D6C0E1ED8B00E2AA1
:10205A000DC007F00EC008F01200000E096E000E47
:10206A000A6E000E0B6E000E0C6E0550061007105D
:10207A000810D8B42AD0010E0D6E06D0D8900536B5
:10208A000636073608360D2A08AEF8D7D89009362C
:10209A000A360B360C360550015C065002580750BA
:1020AA00035808500458D8A009D00550015E0650BC
:1020BA00025A0750035A0850045A0980D890083225
:1020CA000732063205320D2EE1D709C001F00AC0E7
:1020DA0002F00BC003F00CC004F0120003AE0FD0E4
:1020EA00000E076E000E086E800E096E0150075C26
:1020FA00016E02500858026E03500958036E06AE6C
:10210A000FD0000E076E000E086E800E096E045086
:10211A00075C046E05500858056E06500958066E8D
:10212A00000E011A000E021A800E031A000E041A7B
:10213A00000E051A800E061A0450015C055002585A
:10214A0006500358D8B002D0D8901200D880120096
:10215A00066A02AE06D0016C021ED8B0022A010E2F
:10216A00066E04AE04D0036C041ED8B0042A0350D1
:10217A000410D8B418D0010E056E04D0D8900336D6
:10218A000436052A04AEFAD70350015C04500258FB
:10219A00D8A004D00350015E0450025AD8900432E9
:1021AA000332052EF1D70650D8B404D0016C021EB2
:1021BA00D8B0022A01C001F002C002F01200055094
:1021CA00061007100810D8B424D0010E096E06D0E4
:1021DA00D8900536063607360836092A08AEF8D7E3
:1021EA000550015C0650025807500358085004581D
:1021FA00D8A008D00550015E0650025A0750035A6B
:10220A000850045AD8900832073206320532092E8D
:10221A00E7D701C001F002C002F003C003F004C016
:10222A0004F012008E0E116E06D0D8900C320B32CA
:10223A000A320932112A000E09140D6E000E0A1410
:10224A000E6E000E0B140F6EFF0E0C14106E0D5056
:10225A000E100F101010D8A4E8D709C001F00AC058
:10226A0002F00BC003F011C004F0000E056E9AECE8
:10227A000FF001C009F002C00AF003C00BF012000F
:10228A0014D006C0F6FF07C0F7FFF86A070EF76416
:10229A0003D00800F55005D0F6CFD9FFF7CFDAFF03
:1022AA00DF50BAEC11F0064A072A06C0F6FF07C04B
:1022BA00F7FFF86A070EF76403D00800F55005D057
:1022CA00F6CFD9FFF7CFDAFFDF500009D8B41200F2
:1022DA00D8D7046E0450F00B056E0438F00BF00BDF
:1022EA00066EEAEC12F0400EE0EC12F005500C0912
:1022FA00E0EC12F005500809E0EC12F006500C0967
:10230A00E0EC12F006500809E0EC12F0E6EC12F0EC
:10231A00200E036E2A0EE82EFED7032EFCD71200DB
:10232A00040E086E0C0E076E340EE82EFED7072E2A
:10233A00FCD7082EFAD7330E6EEC11F0320E6EEC83
:10234A0011F0280E6EEC11F00C0E6EEC11F0060E68
:10235A006EEC11F0010E6EEC11F0200E076E2A0ED3
:10236A00E82EFED7072EFCD71200036E0350F00B9F
:10237A00046E0338F00BF00B056EEAEC12F0400E17
:10238A00E0EC12F004500D09E0EC12F004500909D7
:10239A00E0EC12F005500D09E0EC12F005500909C5
:1023AA00E0EC12F0E6EC12F0C80EE82EFED71200AE
:1023BA003B503C103D10D8B406D0000E3B1A000E1C
:1023CA003C1A800E3D1A38C02CF039C02DF03AC0A4
:1023DA002EF03BC02FF03CC030F03DC031F03BEC5A
:1023EA000BF02CC038F02DC039F02EC03AF0120094
:1023FA00066E086A0550D8B415D0010E076E03D0D0
:10240A00D8900536072A05AEFBD7D890083605506E
:10241A00065CD8A003D00550065E0880D890053225
:10242A00072EF3D7085012000C6A0AAE06D0096CC0
:10243A000A1ED8B00A2A010E0C6E09C001F00AC0A1
:10244A0002F0036A8E0E046E0CC005F09AEC0FF0CF
:10245A0001C009F002C00AF003C00BF01200056EB9
:10246A0005C003F0D8900336D8900336C250C50B86
:10247A000310C26E500EE82EFED7C282C2B2FED739
:10248A00C450046E036AC3500324016E000E042074
:10249A00026E1200026E080E036E046AD8900234AD
:1024AA000434046ED89002360150045CD8A002D0DD
:1024BA000150045E032EF2D704501200086E08047D
:1024CA00D8B404D0000E0A6E400E03D0000E0A6E75
:1024DA00000E096E09C00BF00B50072480096EEC40
:1024EA0011F0120001500302F3CF05F0F4CF06F009
:1024FA0001500402F350062602500302F350062646
:10250A0005C001F006C002F01200015002100310CB
:10251A00D8B406D0000E011A000E021A800E031A51
:10252A0001C001F002C002F003C003F0120007D09C
:10253A000250D96EDA6ADF50DAEC12F0022A02503F
:10254A00D96EDA6ADF50D8B41200F2D7036E026A83
:10255A003A0E036005D02F0E036402D0010E026EFC
:10256A0002C001F001301200C5CF01F01F0E0116A2
:10257A00D8A4FAD7C7A41200F7D7280EC66EC56A20
:10258A00770EC86EC76A93809382120000018A6B25
:10259A00896B000EF86E00015DEF0AF00E0EC16E37
:1025AA00AE0EC06E010EC26E1200016EACA2FED754
:1025BA0001C0ADFF1200026EB9EC12F002C0C9FFF1
:1025CA001200B9EC12F0C5841200B9EC12F0C58001
:0225DA001200ED
:020000040030CA
:08000000240E181EFF8181FF90
:00000001FF
